{
  "contractName": "ToDo",
  "abi": [
    {
      "inputs": [],
      "stateMutability": "nonpayable",
      "type": "constructor"
    },
    {
      "anonymous": false,
      "inputs": [
        {
          "indexed": false,
          "internalType": "uint256",
          "name": "id",
          "type": "uint256"
        },
        {
          "indexed": false,
          "internalType": "uint256",
          "name": "date",
          "type": "uint256"
        },
        {
          "indexed": false,
          "internalType": "string",
          "name": "content",
          "type": "string"
        },
        {
          "indexed": false,
          "internalType": "string",
          "name": "author",
          "type": "string"
        },
        {
          "indexed": false,
          "internalType": "bool",
          "name": "done",
          "type": "bool"
        }
      ],
      "name": "TaskCreated",
      "type": "event"
    },
    {
      "anonymous": false,
      "inputs": [
        {
          "indexed": false,
          "internalType": "uint256",
          "name": "id",
          "type": "uint256"
        },
        {
          "indexed": false,
          "internalType": "bool",
          "name": "done",
          "type": "bool"
        },
        {
          "indexed": false,
          "internalType": "uint256",
          "name": "date",
          "type": "uint256"
        }
      ],
      "name": "TaskStatusToggled",
      "type": "event"
    },
    {
      "inputs": [
        {
          "internalType": "string",
          "name": "_content",
          "type": "string"
        },
        {
          "internalType": "string",
          "name": "_author",
          "type": "string"
        }
      ],
      "name": "createTask",
      "outputs": [],
      "stateMutability": "nonpayable",
      "type": "function"
    },
    {
      "inputs": [],
      "name": "getTaskIds",
      "outputs": [
        {
          "internalType": "uint256[]",
          "name": "",
          "type": "uint256[]"
        }
      ],
      "stateMutability": "view",
      "type": "function",
      "constant": true
    },
    {
      "inputs": [],
      "name": "getTaskFixtures",
      "outputs": [
        {
          "internalType": "uint256",
          "name": "",
          "type": "uint256"
        },
        {
          "internalType": "uint256",
          "name": "",
          "type": "uint256"
        },
        {
          "internalType": "string",
          "name": "",
          "type": "string"
        },
        {
          "internalType": "string",
          "name": "",
          "type": "string"
        },
        {
          "internalType": "bool",
          "name": "",
          "type": "bool"
        }
      ],
      "stateMutability": "view",
      "type": "function",
      "constant": true
    },
    {
      "inputs": [
        {
          "internalType": "uint256",
          "name": "id",
          "type": "uint256"
        }
      ],
      "name": "getTask",
      "outputs": [
        {
          "internalType": "uint256",
          "name": "",
          "type": "uint256"
        },
        {
          "internalType": "uint256",
          "name": "",
          "type": "uint256"
        },
        {
          "internalType": "string",
          "name": "",
          "type": "string"
        },
        {
          "internalType": "string",
          "name": "",
          "type": "string"
        },
        {
          "internalType": "bool",
          "name": "",
          "type": "bool"
        },
        {
          "internalType": "uint256",
          "name": "",
          "type": "uint256"
        }
      ],
      "stateMutability": "view",
      "type": "function",
      "constant": true
    },
    {
      "inputs": [
        {
          "internalType": "uint256",
          "name": "id",
          "type": "uint256"
        }
      ],
      "name": "toggleDone",
      "outputs": [],
      "stateMutability": "nonpayable",
      "type": "function"
    }
  ],
  "bytecode": "0x608060405234801561000f575f80fd5b505f8081905550610dbc806100235f395ff3fe608060405234801561000f575f80fd5b5060043610610055575f3560e01c8063132a61d9146100595780631d65e77e1461007b578063292a4585146100b0578063bcd14805146100cc578063d81ef739146100ea575b5f80fd5b610061610106565b604051610072959493929190610669565b60405180910390f35b61009560048036038101906100909190610703565b61018e565b6040516100a79695949392919061072e565b60405180910390f35b6100ca60048036038101906100c591906108c7565b610352565b005b6100d461047f565b6040516100e191906109f4565b60405180910390f35b61010460048036038101906100ff9190610703565b6104d5565b005b5f806060805f80425f6040518060400160405280601d81526020017f437265617465206d6f7265207475746f7269616c7320666f7220455442000000815250906040518060400160405280600681526020017f4a756c69656e000000000000000000000000000000000000000000000000000081525090945094509450945094509091929394565b5f806060805f80865f60025f8381526020019081526020015f205f0154036101b4575f80fd5b8760025f8a81526020019081526020015f206001015460025f8b81526020019081526020015f2060020160025f8c81526020019081526020015f2060030160025f8d81526020019081526020015f206004015f9054906101000a900460ff1660025f8e81526020019081526020015f206005015483805461023490610a41565b80601f016020809104026020016040519081016040528092919081815260200182805461026090610a41565b80156102ab5780601f10610282576101008083540402835291602001916102ab565b820191905f5260205f20905b81548152906001019060200180831161028e57829003601f168201915b505050505093508280546102be90610a41565b80601f01602080910402602001604051908101604052809291908181526020018280546102ea90610a41565b80156103355780601f1061030c57610100808354040283529160200191610335565b820191905f5260205f20905b81548152906001019060200180831161031857829003601f168201915b505050505092509650965096509650965096505091939550919395565b5f8081548092919061036390610a9e565b91905055506040518060c001604052805f5481526020014281526020018381526020018281526020015f151581526020015f81525060025f805481526020019081526020015f205f820151815f01556020820151816001015560408201518160020190816103d19190610c82565b5060608201518160030190816103e79190610c82565b506080820151816004015f6101000a81548160ff02191690831515021790555060a0820151816005015590505060015f54908060018154018082558091505060019003905f5260205f20015f90919091909150557fb322bdd3250d405f7845d27fa1f0753f8f7e18e40886bc254b89005c3e9c03245f544284845f604051610473959493929190610669565b60405180910390a15050565b606060018054806020026020016040519081016040528092919081815260200182805480156104cb57602002820191905f5260205f20905b8154815260200190600101908083116104b7575b5050505050905090565b805f60025f8381526020019081526020015f205f0154036104f4575f80fd5b5f60025f8481526020019081526020015f209050806004015f9054906101000a900460ff1615816004015f6101000a81548160ff021916908315150217905550806004015f9054906101000a900460ff1661054f575f610551565b425b81600501819055507fcb1ceae718a6ae11d5daf00e292e318717e0acf2d326ed670df0e5ff67ba500083826004015f9054906101000a900460ff1683600501546040516105a093929190610d51565b60405180910390a1505050565b5f819050919050565b6105bf816105ad565b82525050565b5f81519050919050565b5f82825260208201905092915050565b5f5b838110156105fc5780820151818401526020810190506105e1565b5f8484015250505050565b5f601f19601f8301169050919050565b5f610621826105c5565b61062b81856105cf565b935061063b8185602086016105df565b61064481610607565b840191505092915050565b5f8115159050919050565b6106638161064f565b82525050565b5f60a08201905061067c5f8301886105b6565b61068960208301876105b6565b818103604083015261069b8186610617565b905081810360608301526106af8185610617565b90506106be608083018461065a565b9695505050505050565b5f604051905090565b5f80fd5b5f80fd5b6106e2816105ad565b81146106ec575f80fd5b50565b5f813590506106fd816106d9565b92915050565b5f60208284031215610718576107176106d1565b5b5f610725848285016106ef565b91505092915050565b5f60c0820190506107415f8301896105b6565b61074e60208301886105b6565b81810360408301526107608187610617565b905081810360608301526107748186610617565b9050610783608083018561065a565b61079060a08301846105b6565b979650505050505050565b5f80fd5b5f80fd5b7f4e487b71000000000000000000000000000000000000000000000000000000005f52604160045260245ffd5b6107d982610607565b810181811067ffffffffffffffff821117156107f8576107f76107a3565b5b80604052505050565b5f61080a6106c8565b905061081682826107d0565b919050565b5f67ffffffffffffffff821115610835576108346107a3565b5b61083e82610607565b9050602081019050919050565b828183375f83830152505050565b5f61086b6108668461081b565b610801565b9050828152602081018484840111156108875761088661079f565b5b61089284828561084b565b509392505050565b5f82601f8301126108ae576108ad61079b565b5b81356108be848260208601610859565b91505092915050565b5f80604083850312156108dd576108dc6106d1565b5b5f83013567ffffffffffffffff8111156108fa576108f96106d5565b5b6109068582860161089a565b925050602083013567ffffffffffffffff811115610927576109266106d5565b5b6109338582860161089a565b9150509250929050565b5f81519050919050565b5f82825260208201905092915050565b5f819050602082019050919050565b61096f816105ad565b82525050565b5f6109808383610966565b60208301905092915050565b5f602082019050919050565b5f6109a28261093d565b6109ac8185610947565b93506109b783610957565b805f5b838110156109e75781516109ce8882610975565b97506109d98361098c565b9250506001810190506109ba565b5085935050505092915050565b5f6020820190508181035f830152610a0c8184610998565b905092915050565b7f4e487b71000000000000000000000000000000000000000000000000000000005f52602260045260245ffd5b5f6002820490506001821680610a5857607f821691505b602082108103610a6b57610a6a610a14565b5b50919050565b7f4e487b71000000000000000000000000000000000000000000000000000000005f52601160045260245ffd5b5f610aa8826105ad565b91507fffffffffffffffffffffffffffffffffffffffffffffffffffffffffffffffff8203610ada57610ad9610a71565b5b600182019050919050565b5f819050815f5260205f209050919050565b5f6020601f8301049050919050565b5f82821b905092915050565b5f60088302610b417fffffffffffffffffffffffffffffffffffffffffffffffffffffffffffffffff82610b06565b610b4b8683610b06565b95508019841693508086168417925050509392505050565b5f819050919050565b5f610b86610b81610b7c846105ad565b610b63565b6105ad565b9050919050565b5f819050919050565b610b9f83610b6c565b610bb3610bab82610b8d565b848454610b12565b825550505050565b5f90565b610bc7610bbb565b610bd2818484610b96565b505050565b5b81811015610bf557610bea5f82610bbf565b600181019050610bd8565b5050565b601f821115610c3a57610c0b81610ae5565b610c1484610af7565b81016020851015610c23578190505b610c37610c2f85610af7565b830182610bd7565b50505b505050565b5f82821c905092915050565b5f610c5a5f1984600802610c3f565b1980831691505092915050565b5f610c728383610c4b565b9150826002028217905092915050565b610c8b826105c5565b67ffffffffffffffff811115610ca457610ca36107a3565b5b610cae8254610a41565b610cb9828285610bf9565b5f60209050601f831160018114610cea575f8415610cd8578287015190505b610ce28582610c67565b865550610d49565b601f198416610cf886610ae5565b5f5b82811015610d1f57848901518255600182019150602085019450602081019050610cfa565b86831015610d3c5784890151610d38601f891682610c4b565b8355505b6001600288020188555050505b505050505050565b5f606082019050610d645f8301866105b6565b610d71602083018561065a565b610d7e60408301846105b6565b94935050505056fea2646970667358221220fd3d1d234d831a05b404428d4b7c4e81ae55366c0767193b39750958328c10bc64736f6c63430008150033",
  "immutableReferences": {},
  "source": "// SPDX-License-Identifier: MIT\npragma solidity >=0.4.22 <0.9.0;\n\ncontract ToDo {\n    struct Task {\n        uint id;\n        uint date;\n        string content;\n        string author;\n        bool done;\n        uint dateComplete;\n    }\n\n    uint lastTaskId;\n    uint[] taskIds;\n    mapping(uint => Task) tasks;\n\n    event TaskCreated(\n        uint id,\n        uint date,\n        string content,\n        string author,\n        bool done\n    );\n\n    event TaskStatusToggled(uint id, bool done, uint date);\n\n    constructor() {\n        lastTaskId = 0;\n    }\n\n    function createTask(string memory _content, string memory _author) public {\n        lastTaskId++;\n        tasks[lastTaskId] = Task(\n            lastTaskId,\n            block.timestamp,\n            _content,\n            _author,\n            false,\n            0\n        );\n\n        taskIds.push(lastTaskId);\n        emit TaskCreated(lastTaskId, block.timestamp, _content, _author, false);\n    }\n\n    function getTaskIds() public view returns (uint[] memory) {\n        return taskIds;\n    }\n\n    function getTaskFixtures()\n        public\n        view\n        returns (uint, uint, string memory, string memory, bool)\n    {\n        return (\n            0,\n            block.timestamp,\n            \"Create more tutorials for ETB\",\n            \"Julien\",\n            false\n        );\n    }\n\n    function getTask(\n        uint id\n    )\n        public\n        view\n        taskExists(id)\n        returns (uint, uint, string memory, string memory, bool, uint)\n    {\n        return (\n            id,\n            tasks[id].date,\n            tasks[id].content,\n            tasks[id].author,\n            tasks[id].done,\n            tasks[id].dateComplete\n        );\n    }\n\n    function toggleDone(uint id) public taskExists(id) {\n        Task storage task = tasks[id];\n\n        task.done = !task.done;\n        task.dateComplete = task.done ? block.timestamp : 0;\n        emit TaskStatusToggled(id, task.done, task.dateComplete);\n    }\n\n    modifier taskExists(uint id) {\n        if (tasks[id].id == 0) {\n            revert();\n        }\n        _;\n    }\n}\n",
  "sourcePath": "E:\\Project\\blockchain\\BNB\\contracts\\ToDo.sol",
  "compiler": {
    "name": "solc",
    "version": "0.8.21+commit.d9974bed.Emscripten.clang"
  },
  "schemaVersion": "3.4.16",
  "updatedAt": "2024-06-22T08:49:44.980Z",
  "networkType": "ethereum",
  "devdoc": {
    "kind": "dev",
    "methods": {},
    "version": 1
  },
  "userdoc": {
    "kind": "user",
    "methods": {},
    "version": 1
  }
}